:0C0000000C9459000C9400000C940000BB
:10000C000C9400000C9400000C9400000C94000064
:10001C000C9400000C9400000C9400000C94000054
:10002C000C9400000C9400000C9400000C94000044
:10003C000C9400000C9400000C9400000C94000034
:10004C000C9400000C9400000C9400000C94000024
:10005C000C9400000C9400000C9400000C94000014
:10006C000C9400000C9400000C9400000C94000004
:10007C000C9400000C9400000C9400000C940000F4
:10008C000000000080C001002D4E414E00494E463C
:10009C000000040004008C00020000059000010028
:1000AC00040592000000F894EE27ECBBF1E0F5BFDC
:1000BC00E5BFE0936C008DE0A2E0BB27ED938A9541
:1000CC00E9F780E090E1A0E0B1E0ED930197E9F76A
:1000DC00EEE9F0E085919591009761F0A591B591CD
:1000EC0005901590BF01F00105900D920197E1F775
:1000FC00FB01F0CF8BBFEFEFEDBFE0E1EEBFC0E057
:10010C00D5E00C948900E0E0E1BBEFEFE2BBA0E1AD
:10011C00BAD0E0E0EA93A0E077D083990DC0AAEFC3
:10012C00B0E00E94B401552019F4E1E05E2E04C049
:10013C00442011F4E1E04E2E85990DC0AAEFB0E0F9
:10014C000E94B401552019F4E2E05E2E04C0442054
:10015C0011F4E2E04E2EE1E0E51519F4E2E0E415CD
:10016C0009F002C073940BC0E2E0E51519F4E1E06C
:10017C00E41509F013C0E0E0E71508F47A9455246F
:10018C004424E0E0EA93A0E03FD0E72DF0E0FA93BE
:10019C00EA93D4010E947801D40164D0451409F487
:1001AC004424BBCFFFCFAA93E881E07111F0DB9A16
:1001BC0001C0DB98E881E07211F0DA9A01C0DA989C
:1001CC00E881E07411F0D99A01C0D998E881E078FF
:1001DC0011F0D89A01C0D8988DE08A95F1F7DC9A85
:1001EC008DE08A95F1F7DC988DE08A95F1F778C06F
:1001FC00AA93A881D8DFE881E295E883A881D3DFB0
:10020C0085E88A95F1F76CC0AA93E881F0E0E0509C
:10021C00FB4FE081A981AE0FEBDF6980B88022969D
:10022C000895A2E00E94A601ACE0E2DFA1E00E94EA
:10023C00A601E0E0BE2E6E2E0895AA93A881AA30E6
:10024C0011F06A1448F0E0E0EA93B394AB2DDCDFD4
:10025C00A881AA3009F444C06394DE9AA881C8DF4F
:10026C00DE983EC0BA93AA931A93A981BA81ED91F4
:10027C00A983BA831E2FE03019F0A12FDEDFF5CF52
:10028C00188123960895AA93D39AD29AD19AD09A88
:10029C00D49AD69AD59ADC98DE98DD98A880E88115
:1002AC00E058E0930205E881E054E0930305A4E1F3
:1002BC00B0E00E94B4010E94AC010E94AC010E940B
:1002CC00AC01A0E270DF88EC90E00197F1F7A8E2B6
:1002DC008FDFA4E08DDFA5E88BDFA6E089DFA1DF4F
:1002EC0021960895BA93AA93A991B991E991F9919C
:1002FC0030962AF4E095F09531966DE26D93E89482
:10030C0080E197E20DD088EE93E00AD084E699273D
:10031C0007D08AE005D06E2F10D066276C93089515
:10032C006627E817F90720F06395E81BF90BC9F766
:10033C00662311F416F008956894605D6D9308952A
:10034C000E94FE00A3E0B0E00C94B401A0E30E9474
:10035C00D90088EC90E00197F1F70895109639F0E8
:10036C0080ED97E00197F1F7A8951197C9F70895DB
:00000001FF
