:100000000C9451000C9400000C9400000C9400001F
:100010000C9400000C9400000C9400000C94000060
:100020000C9400000C9400000C9400000C94000050
:100030000C9400000C9400000C9400000C94000040
:100040000C9400000C9400000C9400000C94000030
:100050000C9400000C9400000C9400000C94000020
:100060000C9400000C9400000C9400000C94000010
:100070000C9400000C9400000C9400000C94000000
:100080000C9400000C9400000C94000068656C6CEB
:100090006F20776F726C640080C0020000059800CA
:1000A0000000F894EE27ECBBF1E0F5BFE5BFE0936C
:1000B0006C008DE0A2E0BB27ED938A95E9F780E024
:1000C00090E1A0E0B1E0ED930197E9F7EAE9F0E013
:1000D00085919591009761F0A591B5910590159046
:1000E000BF01F00105900D920197E1F7FB01F0CF00
:1000F0008BBFEFEFEDBFE0E1EEBFC0E0D5E00C94C9
:100100008100E0E0E1BBECE3E2BBA0E19FD0A4EF23
:10011000B1E00E945E01E0E0EA93A0E058D0ACE8D4
:10012000B0E081D0839B05C0E1E0F0E0E415F50587
:1001300049F4AAEFB0E00E945E01E1E0F0E02F0197
:10014000ACE139D0859B05C0E2E0F0E0E415F505AF
:1001500049F4AAEFB0E00E945E01E2E0F0E02F0176
:10016000A8E129D0829B40D0DDCFFFCFAA93E881C0
:10017000E07111F0DB9A01C0DB98E881E07211F0C8
:10018000DA9A01C0DA98E881E07411F0D99A01C0D6
:10019000D998E881E07811F0D89A01C0D8988DE01C
:1001A0008A95F1F7DC9A8DE08A95F1F7DC988DE07D
:1001B0008A95F1F775C0AA93A881D8DFE881E29506
:1001C000E883A881D3DF85E88A95F1F769C0AA930F
:1001D000E881F0E0E050FB4FE081A981AE0FEBDF5A
:1001E0007980688022960895A2E05CD0ACE0E3DFDD
:1001F000A1E058D0E0E06E2E7E2E0895AA93A8814B
:10020000AA3011F0791448F0E0E0EA936394A62D47
:10021000DEDFA881AA3009F443C07394DE9AA88176
:10022000CADFDE983DC0BA93AA931A93E981FA8196
:100230003196E983FA833197E4911E2FE03019F06B
:10024000A12FDCDFF3CF188123960895AA93D39AC8
:10025000D29AD19AD09AD49AD69AD59ADC98DE9826
:10026000DD989880E881E058E0930205E881E05449
:10027000E0930305A4E1B0E00E945E0118D017D01E
:1002800016D0A0E273DF88EC90E00197F1F7A8E2C6
:1002900092DFA4E090DFA5E88EDFA6E08CDFA4DF8C
:1002A0002196089588DFA3E0B0E00C945E01A0E3FE
:1002B0005DDF88EC90E00197F1F70895109639F032
:1002C00080ED97E00197F1F7A8951197C9F7089588
:00000001FF
