:020000000C945E
:1000020046000C9400000C9400000C9400000C9428
:1000120000000C9400000C9400000C9400000C945E
:1000220000000C9400000C9400000C9400000C944E
:1000320000000C9400000C9400000C9400000C943E
:1000420000000C9400000C9400000C9400000C942E
:1000520000000C9400000C9400000C9400000C941E
:1000620000000C9400000C9400000C9400000C940E
:1000720000000C9400000C9400000C9400000C94FE
:1000820000000C9400000C940000F894EE27ECBBE6
:10009200F1E0F5BFE5BFE0936C008DE0A2E0BB2785
:1000A200ED938A95E9F780E090E1A0E0B1E0ED936D
:1000B2000197E9F78BBFEFEFEDBFE0E1EEBFC0E0E4
:1000C200D5E00C946400159AE0E2E3B9FFCFFFCFCC
:00000001FF
