:0200000021C01D
:1000020087C1FDCFFCCFFBCFFACFF9CFF8CFF7CF27
:1000120092C0F5CFF4CFF3CFF2CFF1CFF0CFEFCF45
:10002200EECFEDCF1027E80364000A0001000010B4
:100032000001100001005300000004000A00380013
:100042000000F894EE27ECBBF1E0FBBFEBBFE5BF8D
:10005200F8E1F1BDE1BD8DE0A2E0BB27ED938A9509
:10006200E9F780E094E0A0E6ED930197E9F7ECE38D
:10007200F0E085919591009761F0A591B591059079
:100082001590BF01F00105900D920197E1F7FB0178
:10009200F0CFEFE5EDBFE4E0EEBFC0E6D1E03DC159
:1000A200AA9348D210E0929A909A00E00830F8F4AD
:1000B200EA81E17011F4929801C0929A85E88A95DA
:1000C200F1F7909885E88A95F1F7E12FE6950E2EE3
:1000D200A0E08399A1E0EA2FE795E0E0E795E02927
:1000E2001E2F909AEA81E695EA830F5FDFCF88ECB4
:1000F20090E00197F1F7E12F20D223960895F2D1F3
:10010200A2E4F3D1F2D1CCDF9E2EF2D18E2EF0D129
:100112005E2EEED14E2EECD17E2EEAD16E2E92982C
:10012200919A0895EFEF8E2E9E2EE0E86E2E7E2E8F
:100132004E2E5E2E08950A921A92FA926A937A933A
:100142008A939A93AA93BA93EA93FA93EFB7EA93AC
:10015200E0E9E2BFE1E0EB1509F4D1DFE991EFBF9D
:10016200F991E991B991A9919991899179916991BD
:10017200F990199009901895B5D1A3E4B6D190DF02
:10018200A1E014C0AFD1A3E4B0D1AFD1B3D1B2D109
:10019200B1D1B0D1AFD10CC0A5D1A4E4A6D180DF3A
:1001A200A1E07EDFA3E0A1D1A0D19FD179DFA0E0C1
:1001B20077DF9298A1E0A1D1919AAAE09ED1089509
:1001C200AA931A9310E01830C8F4E981E07811F488
:1001D200AB9801C0AB9A8DE08A95F1F7E981EE0FF9
:1001E200E983AA9A8DE08A95F1F7E0E09C99E1E033
:1001F200A981EA2BE983AA981F5FE5CFE9811881DB
:1002020060C0A89A88E795E00197F1F7A898A99AA3
:100212000895AA93A998E981E062AE2F70D172D1B4
:1002220050C0AA93A998E3E0EA93A3E0F2DF6AD16F
:10023200A998AAE264D16BD16AD164D1A998A0E34A
:100242005ED165D164D15ED121960895E0E0EA9352
:10025200AFE1DFDFA89A0895A898E0E0EA93AEE163
:1002620019C08BE18A95F1F7E0E0EA93AFE1D1DFC3
:10027200A2E043D14ED1E1E150D1E5E0EA93A2E020
:10028200C8DFAA2DCEDFE2E048D1E1E046D1E4E0CA
:10029200EA93A0E0BEDF0895AA93A981C2DF32D11A
:1002A200A998A1EE8DDF2ED1A998A0EA28D1A99A0A
:1002B200A89A88EE93E00197F1F7A8982AD1AA2D7F
:1002C200B0DF22960895E0E0E8BBEFEFE7BBEFE393
:1002D200E5BBEFE0E4BBEFEFE2BBE7E0E1BBE5E06B
:1002E200E3BFE0E0E2BFE1E0E9BFE0E0EAB9E0E875
:1002F200E8B9E0E0E0BFE6B9EDB9EBB7E064EBBF27
:10030200E2E0E5BFE0E4EABFE0E0E6BF789408950A
:10031200EA93E1E0DE2EE9911895D5DFBB2402DFF6
:1003220070DF9FDF93DFFEDE27DF36DF2BDFE1E0CA
:10033200BE2E92DFE0E54E1618F4E2E3E61508F071
:1003420003C0E1E0CE2EC7C0EEE14E1618F4E2E0A3
:10035200CE2EC1C0EAEAE41518F4E8EC6E1608F0F5
:1003620003C0E3E0CE2EB7C0ECEDE41518F4E4E0F0
:10037200CE2EB1C0E0E55E1618F4E2E3E71508F010
:1003820003C0E5E0CE2EA7C0EEE15E1618F4E6E06B
:10039200CE2EA1C0EAEAE51518F4E8EC7E1608F0C4
:1003A20003C0E7E0CE2E97C0ECEDE51518F4E8E0C7
:1003B200CE2E91C0E0E56E1618F4E2E3E41508F0E3
:1003C20003C0E9E0CE2E87C0EEE16E1618F4EAE033
:1003D200CE2E81C0EAEAE61518F4E8EC4E1608F0D3
:1003E20003C0EBE0CE2E77C0ECEDE61518F4ECE09E
:1003F200CE2E71C0E0E57E1618F4E2E3E51508F0B2
:1004020003C0EDE0CE2E67C0EEE17E1618F4EEE0FA
:10041200CE2E61C0EAEAE71518F4E8EC5E1608F0A1
:1004220003C0EFE0CE2E57C0ECEDE71518F4E0E183
:10043200CE2E51C094FC03C0E1E1CE2E4CC097FCFD
:1004420003C0E2E1CE2E47C096FC03C0E3E1CE2E0C
:1004520042C095FC03C0E4E1CE2E3DC084FC03C043
:10046200E5E1CE2E38C085FC03C0E6E1CE2E33C0D6
:1004720086FC03C0E7E1CE2E2EC087FC03C0E8E174
:10048200CE2E29C082FC03C0E9E1CE2E24C083FC1B
:1004920003C0EAE1CE2E1FC080FC03C0EBE1CE2EEA
:1004A2001AC081FC03C0ECE1CE2E15C090FC03C043
:1004B200EDE1CE2E10C091FC03C0EEE1CE2E0BC0BA
:1004C20092FC03C0EFE1CE2E06C093FC03C0E0E233
:1004D200CE2E01C0CC24AA92AC2DDEDEA1E00DD03E
:1004E20028CFFFCF9198A1E0DBCDDADDA0E008951F
:1004F200A0E0D6CDD5DDAAE50895B0E011C060DE5A
:10050200A8815ECEA99A8BE18A95F1F70895A88118
:10051200F6CFE7E0EA93AEE77CCEEA93A1E079CEAC
:10052200109639F080ED97E00197F1F7A8951197B1
:10053200C9F708951A930A930895198108810895B5
:00000001FF
