:0E0000000C9457010C9400000C9400000C941A
:10000E0000000C9400000C9400000C9400000C9462
:10001E0000000C9400000C9400000C9400000C9452
:10002E0000000C9400000C9400000C9400000C9442
:10003E0000000C9400000C9400000C9400000C9432
:10004E0000000C9400000C9400000C9400000C9422
:10005E0000000C9400000C9400000C9400000C9412
:10006E0000000C9400000C9400000C9400000C9402
:10007E0000000C9400000C9400000C940000050786
:10008E00206000000000000000040A0400070007C2
:10009E0000147F147F14242A7F2A1223130864620B
:1000AE0036495522500005030000001C2241000075
:1000BE0041221C00082A1C2A0808083E0808005085
:1000CE003000000808080808003030000020100832
:1000DE0004023E5149453E00427F40004261514973
:1000EE00462141454B311814127F1027454545399D
:1000FE003C4A4949300171090503364949493606DA
:10010E004949291E00363600000056360000000808
:10011E001422411414141414412214080002015123
:10012E000906324979413E7E1111117E7F494949B6
:10013E00363E414141227F4141221C7F494949417E
:10014E007F090901013E414151327F0808087F00B5
:10015E00417F41002040413F017F081422417F40F2
:10016E004040407F0204027F7F0408107F3E4141E1
:10017E00413E7F090909063E4151215E7F09192939
:10018E0046464949493101017F01013F4040403F08
:10019E001F2040201F7F2018207F63140814630344
:1001AE0004780403615149454300007F4141020434
:1001BE0008102041417F000004020102044040402B
:1001CE004040000102040020545454787F484444B7
:1001DE00383844444420384444487F3854545418E2
:1001EE00087E090102081454543C7F080404780068
:1001FE00447D40002040443D00007F1028440041D3
:10020E007F40007C041804787C0804047838444449
:10021E0044387C14141408081414187C7C08040444
:10022E00084854545420043F4440203C4040207C15
:10023E001C2040201C3C4030403C44281028440CDC
:10024E005050503C4464544C440008364100000069
:10025E007F0000004136080002010204027F414186
:10026E00417F000103070F1F3F7FFF001027E803A8
:10027E0064000A00010000100001100001000000DF
:10028E0025642020000001002D4E414E00494E46AF
:10029E000000020006008C020100210794020000FB
:1002AE00F894EE27ECBBF1E0F5BFE5BFE0936C00F0
:1002BE008DE0A2E0BB27ED938A95E9F780E090E10F
:1002CE00A0E0B1E0ED930197E9F7E0EAF2E0859165
:1002DE009591009761F0A591B59105901590BF018C
:1002EE00F00105900D920197E1F7FB01F0CF8BBF66
:1002FE00EFEFEDBFE0E1EEBFC0E0D5E00C9494016E
:10030E00AA93E881E7B98BE18A95F1F7369A349B87
:10031E00FECF349AE4B1F5B16CC12897ECE8F0E069
:10032E00E883F983EE81EC7FE260EE83E37EE061A9
:10033E00EE83EF81E078EC63EF83DE01B5D0979A20
:10034E00E0E0E7B9E3E8E6B9E0E0E0BDE0EAE1BB12
:10035E00E0E0E2BB979866247724E4E0F0E06E16C6
:10036E007F06F8F4A0E0CCDF2F01EDE1F5E0FA9383
:10037E00EA93EEE8F2E0FA93EA93F2016627772722
:10038E000E94830984E00E94DC072896EAE0EA9343
:10039E00EA93ADE1B5E00E944706F30131963F01C5
:1003AE00DCCFECEBF2E0E415F50510F0959A01C008
:1003BE009598D1CFFFCF0895AA931A93E091650037
:1003CE00EF7EE093650018E0F6DFE981E07821F03A
:1003DE00E0916500E26003C0E0916500ED7FE0937F
:1003EE006500E981EE0FE983E6DFE0916500E460E8
:1003FE00E0936500E0DFE0916500EB7FE093650040
:10040E00115011F7E0916500E061E09365001881ED
:10041E0042C0AA93E0916500EE7FE0936500A8814B
:10042E00CBDFE7C0AA93E0916500E160E093650041
:10043E00A881C2DFDEC0AA931A93E981E695E695FC
:10044E00E6951E2FE4E5E19FF001DF01EA81F0E081
:10045E00EA0FFB1FE0932705F0932805E12F188183
:10046E0023960895AA93E981E068AE2FD2DFE98141
:10047E00EA93A981E0DFE064AE2FCBDF0CC0AA9334
:10048E00E981EA93A981EEDFE0912705F091280535
:10049E00E75DFA4FE08122960895AA930E94AA087A
:1004AE00A881A083BFDFA5C0BA93AA930E94AB090F
:1004BE00E0916400E0610E94B508E061E0936500A0
:1004CE00E0916400E4600E94B508EB7FE093650064
:1004DE00E0916400E260E0936400E0916400E1600A
:1004EE00E0936400E0916400E8600E94B508E77F45
:1004FE00E0936500AAE0B0E00E945109E09165002A
:10050E00E860E0936500EC81FD81309721F1E68192
:10051E00E3701E2FEC81FD81E681E695E695E7708E
:10052E000E2FEC81FD81E781EF773E2FAC81BD81EF
:10053E000E947B09E0930405F093050512960E9434
:10054E007B09E0931905F0931A05AC81BD811496D1
:10055E000E947B090DC010E003E032E3E0E0F0E022
:10056E00E0930405F0930505E0931905F0931A0541
:10057E00E0931B05F0931C05A1E24BDFE12FE46035
:10058E00AE2F47DFE02FE061AE2F43DFE32FE068B1
:10059E00AE2F3FDFA0E23DDFA1E022D0E1E0E0930D
:1005AE000005E0E0E0930105E1E0E0930605E0934D
:1005BE000705E0930805EFEFE0930905E1E0E0930E
:1005CE001005E1E1F5E0FA93EA93EFEFEA93A8E084
:1005DE00B0E00E9410080FD0E1E00E94B20960C0A6
:1005EE00AA93E881E03011F0ECE001C0E8E0AE2F14
:1005FE0010DF219608950E94AB0930E0E0910105CD
:10060E00E03009F03FEFE0E0EA93A0E02BDF08EFE7
:10061E0011E0F80101501040309719F0A32F3DDF83
:10062E00F8CFE0E0EA93A0E040D30E94B2090C9428
:10063E00A808AA931A93ED81EA93AD8120DF1E2FAD
:10064E00E981E73011F0E83039F4EB81EA93AA81C1
:10065E000E944408EB8308C0E33021F4EB81E0955F
:10066E00EB8302C0E03021F4EA81E0951E2302C044
:10067E00E23029F4EA81AB81EA231E2B0EC0E13071
:10068E0029F4EA81AB81EA231E2707C0E43029F45E
:10069E00EA81E095AB81EA2B1E23A12FFEDE1881A5
:1006AE0026960895AA9323970E94A909A889A4358E
:1006BE0048F4AF85A03330F4AE85A03019F0AD8587
:1006CE00A03009F4CCC1EE85E887A889BB27EE855A
:1006DE00F0E0AE0FBF1FA535E0E0BE0720F0A88901
:1006EE00E4E5EA1BEE872D85AF85BB27ED85F0E0AF
:1006FE00AE0FBF1FD19720F0AF85E0E3EA1BED8769
:10070E00A985A63009F05BC0EC85E13009F4A7C1DC
:10071E00E33039F4E0911B05F0911C05309709F494
:10072E009EC10885ED85E695E695E6953E2FE22F6E
:10073E00E77019F4AD852A17E9F0A02FBB27E32F38
:10074E00F0E00E947309AA85BB850E94BA0826951F
:10075E0026952695532F5F935F5FE22FAF91EA1791
:10076E0048F0102FE12F1150E03019F00E94BF0811
:10077E00F9CFF1CFAE850A1711F1EE85AA85BB85AB
:10078E00F0E00E94BA08ED85E77009F03F5F20E0C7
:10079E002F932F5FE32FAF91AE1788F41E851F9313
:1007AE001F5FE02FAF91AE1718F40E94BF08F7CF6E
:1007BE00EE85AE81BF81F0E00E94BA08E9CFEF85E9
:1007CE00E7703E2FED85E03009F449C1EA85FB85DF
:1007DE00EE83FF8310E00889303009F063C0AD85E9
:1007EE00A83008F45AC0E985E03011F0E33009F47E
:1007FE0002C0E73009F402C0E83009F402C0E93063
:10080E0009F402C0EA3021F40A93A8892BDE04C051
:10081E00E63011F40E94CC081F931F5FEE85AF9156
:10082E00AE17A0F5A985A63051F40E94D008FA9310
:10083E00EA930E94AA08A0810E948B0826C0E9852F
:10084E00E93011F450E00EC0EA3011F45FEF0AC047
:10085E000E94D0080E94D9085E2FE985E73011F07A
:10086E00E83021F40E94DF085E2F06C0E33011F459
:10087E00509502C0E03019F4A52FD4DD06C00E94B9
:10088E00E308EFEFEA93AD85D4DEC6CFEF85E85FE0
:10089E00EF87ED85E850ED87D9C05D8520E0E0E07B
:1008AE00ED877EC0E32FAD85AE0FA93020F42D85E8
:1008BE00E0E0ED8703C0E8E0E31B2E2F3A93A22F72
:1008CE000E9439084E2FE985E63011F50E94CC08BA
:1008DE001F931F5FEE85AF91AE17C8F40E94AA0852
:1008EE00E081E423AE2FE32F0E946B090E94E908FA
:1008FE00E32FA42F0E946B09E095E1215E2B0E944D
:10090E00D008FA93EA93A52F0E948B08E1CF2CC052
:10091E00E93011F450E003C0EA30A9F45FEF0E9411
:10092E00DF08AE2FE32F0E9463095E2F1F931F5F18
:10093E00EE85AF91AE1730F40E94E3084A93A0E023
:10094E0078DEF4CF11C01F931F5FEE85AF91AE1707
:10095E0058F40E94F408AE2FE32F0E946309EA9325
:10096E004A93AD8566DEEFCFED85E03009F477C0B2
:10097E00AD85A83028F4ED85E21B5E2FE0E003C0C4
:10098E00532FED85E850ED8710E0EF85E85FEF8798
:10099E00E8E0E31B2E2F0889EA85FB85EE83FF83B3
:1009AE00E52FF0E0E059FD4F4491E985E63011F571
:1009BE000E94CC081F931F5FEE85AF91AE17C8F44F
:1009CE000E94AA08E081E423AE2FE22F0E94630961
:1009DE000E94E908E22FA42F0E946309E095E1210D
:1009EE005E2B0E94D008FA93EA93A52F0E948B08E3
:1009FE00E1CF2CC0E93011F450E003C0EA30A9F485
:100A0E005FEF0E94DF08AE2FE22F0E946B095E2F70
:100A1E001F931F5FEE85AF91AE1730F40E94E3086F
:100A2E004A93A0E006DEF4CF11C01F931F5FEE8540
:100A3E00AF91AE1758F40E94F408AE2FE22F0E9429
:100A4E006B09EA934A93AD85F4DDEFCFE885AA856D
:100A5E00BB85F0E0EA0FFB1FEA87FB87B3CE0E944F
:100A6E00B009619608950E94010924F0E0E0F0E0DB
:100A7E000C944208A881B981A435E0E0BE0724F0A9
:100A8E00E3E5F0E00C944208E881F9810C94420809
:100A9E000E94010924F0E0E0F0E00C944208A881E5
:100AAE00B981D09724F0EFE2F0E00C944208E8818F
:100ABE00F9810C944208BA93AA9323970E940809CD
:100ACE008F01002E012A19F4E0E0F0E05FC00E94D1
:100ADE000F090F820E940F090E820E940F090886CD
:100AEE00EB85A885EA1718F4E0E0F0E04FC0F801B6
:100AFE000F5F1F4F5491A885BB27EE27A50FBE1F72
:100B0E00EB85F0E0EA17FB0718F0E0E0F0E03EC0FE
:100B1E00EE81E695E695E6954E2FEE81E77009F0AB
:100B2E004F5FEF81E030A1F0A985BA85EC93A885DF
:100B3E00EB85EA1BF0E0DF01EF81F0E00E94730924
:100B4E00DF01E42FF0E00E947309E00FF11F1EC0D9
:100B5E009801E52FF0E00E0F1F1FA885AF5FA88745
:100B6E00A150EB85AE1760F4F9012F5F3F4FA491B2
:100B7E00B0E0E42FF0E00E9473090E0F1F1FEDCFBF
:100B8E00F901E491A985BA85EC93F8010E94B009A8
:100B9E002C960895E0E0E0930205A0910305BB2793
:100BAE000E941409F0E0AE0FBF1FE0910705F0E0C0
:100BBE00AE0FBF1F6DDFE09303050895AA93219733
:100BCE000E940809309709F455C0AF81AA3009F484
:100BDE004FC0EF81EA93DE0117966DDFAF013097BC
:100BEE0009F44AC0E0910605AE81EA0F3E2FA091AE
:100BFE000205BB27F0E0EA0FFB1F8F010535E0E091
:100C0E001E0718F0032F1127C5DFE0910205EA93A6
:100C1E00E0910305EA93E885EA930E941409EA93AA
:100C2E00E1E0EA935A934A93A7E03CDDE091020596
:100C3E00AE81EA0FEA93E0910305EA93E09106058F
:100C4E00EA930E9414090E941B09E0910205EA939F
:100C5E00A09103050E941409EA0FEA933A93E091DA
:100C6E0007050E941B09E4E5F0E0E017F10711F417
:100C7E0091DF02C0009302050E94B00928960895E4
:100C8E00BA93AA931A93EC81EA93AC810ED0A98100
:100C9E00BA81ED91A983BA831E2FE03019F0A12FEE
:100CAE008DDFF5CF18810C941E08AA93A981BB275E
:100CBE00DADEE0930205A881BB27EADEE0930305A6
:100CCE000C944208BA93AA931A930A93AA81BB81F1
:100CDE0012960E947B09309759F1AA81BB81149616
:100CEE000E947B098F01309761F00230E0E01E0711
:100CFE0098F0F80131978F01AA81BB811496ED937C
:100D0E00FC93AA81BB811296ED91FD913196FE93D3
:100D1E00EE933197AC81A083AA81BB810E947B099F
:100D2E00FF232AF0ED91FD913196FE93EE9306C0CE
:100D3E00AA81BB81EFEFFFEFED93FC931981088140
:100D4E0076C1BA93AA9326970E94A90910E0AC85A2
:100D5E00BD85E0E0F0E0ED93FC93EA89FB893196E6
:100D6E00EA8BFB8B3197E4912E2FE03009F415C1FD
:100D7E00E12FE03039F4253211F411E002C00E9467
:100D8E0025090AC1E130A9F4253219F40E9425097A
:100D9E0002C112E040E000E02D3211F401E0FCC08F
:100DAE002B3211F44BE2F8C0203211F440E2F4C0C1
:100DBE0002C0E23039F450E013E0203311F4006841
:100DCE00EBC003C0E33009F0E7C0203310F02A3344
:100DDE0008F007C0AAE05A9F502DE22FE0535E0F95
:100DEE00DBC0E22FE33649F40E942C09E889F98929
:100DFE00A481AA930E943209CEC0E33741F40E9427
:100E0E002C090E9438090E9420081E2F0AC0E037C4
:100E1E0061F40E942C090E9438090E942C081E2F92
:100E2E00086002600F7730E034C0E43611F0E93626
:100E3E0011F4046002C0E53731F4EAE7F2E0EE8324
:100E4E00FF8315E00CC0E83511F4086003C0E837E5
:100E5E0009F0A1C0E4E8F2E0EE83FF8314E002FFA4
:100E6E0014C00E942C090E944209AB85AA233AF4B1
:100E7E00EA85FB850E945F09EA87FB874DE24030D9
:100E8E0011F01F5F01C00B7F04C00E942C090E944D
:100E9E00420900FD11C0151778F407FF08C002FFC4
:100EAE0004C00B7F242F115001C020E301C020E2AB
:100EBE000E9425095150EFCF312F01FF17C030305E
:100ECE00A1F003FF06C0EE81FF812591EE83FF8323
:100EDE0005C0AE81BF812D91AE83BF830E942509CF
:100EEE00503009F051503150EACF4BC020E3EE8123
:100EFE00FF810E947F09E887F987EE81FF81329694
:100F0E00EE83FF83E885F985AA85BB85AE17BF07FB
:100F1E0050F02F5FA885B985EA85FB85EA1BFB0B90
:100F2E00EA87FB87EFCF2A3328F003FF02C0295F41
:100F3E0001C0295D04FD1AC0213320F4A885B985AE
:100F4E00119709F409C0531710F000FF01C013C028
:100F5E0020E207FF0BC020E3006102FF07C00B7FFA
:100F6E004A930E943209503009F051500E942509CF
:100F7E00503009F051503150A885B985129708F0BC
:100F8E00B5CF00FF08C0503031F05150E0E2EA9387
:100F9E000E943209F8CF10E0E0CEAC85BD850E94EC
:100FAE007B090E94B00964960895FF92F82E269749
:100FBE000E94AB090E944A09309719F4EFEFFFEF38
:100FCE0023C0DE0116960E945B098D010E944A091C
:100FDE00EE83FF83E0E0E887E987DE011A960E9440
:100FEE005B090E947B09FA93EA931A930A93E9E646
:100FFE00F6E0FA93EA93DE011A96A3DE9F01AE8124
:10100E00BF81E0E0EC93F9010E94B2092A96FF90AD
:10101E000895BA93AA93B981A881109631F0FC81F4
:10102E00EB816A8161931197E9F7EB81FC8125963B
:10103E000895BA93AA93A991B991EE27FF276D91BE
:10104E00662311F03196FBCF0895BA93AA93AA277F
:10105E00BB27E991F9910590002011F01196FBCF75
:10106E00FD010895AA93E881F0E0E059FD4FA491A7
:10107E00E9810E94630922960895AA931A93E98141
:10108E00E73011F0EA3019F41091000509C0E9308B
:10109E0019F41091010504C0E830A1F41091100567
:1010AE00E0910105E03049F0103019F0EFEF1881B2
:1010BE0029C0EA81E095188125C0103019F4E0E0CE
:1010CE00188120C0EA8118811DC0BA93AA93EA81C3
:1010DE00E13021F4E881F981E49114C0E23029F481
:1010EE00A881B9810E9488090DC0E33041F4A8811E
:1010FE00B981E0911905F0911A05099503C0A881EF
:10110E00B981EC9123960895AA93EB81E03029F4EE
:10111E00E881A981BA81EC9314C0E23031F4E88100
:10112E00A981BA810E9494090CC0E33051F4E9817F
:10113E00FA81FA93EA93AA81E0911B05F0911C05BE
:10114E00099524960895A7E2B5E0ED91FD913196AB
:10115E00FE93EE933197E75DFA4F0895E0936400A6
:10116E00E09165000895EA0FFB1FEE83FF8308955B
:10117E00EC85EA93EF81F8853196EF83F887319706
:10118E00FA93EA93A0E00C948B080A93A8890C9426
:10119E002202EC85EA93EF81F8853196EF83F8878A
:1011AE003197089566277727DF01CB010C946C08E1
:1011BE005A93AA850C9444080A930395E889EA93F6
:1011CE005A9308955E2FEC85EA93AF81B8858827F0
:1011DE0099270E946C081E2E08950A930395E8899C
:1011EE00EA93EE85EA93E985FA853196E987FA87DF
:1011FE003197D8CFBA93AA93A881B9810E94A50935
:10120E0008950E94A909E0910405F091050508953D
:10121E00F8010F5F1F4F04900895E0910405F091BF
:10122E0005053196E4910895EA93E0E0EA93E0E053
:10123E00F0E0FA93EA93A9E00C9459032A93AD8552
:10124E00BE85EF85F88909950895E889F98934975F
:10125E00E88BF98B0895AD85BE85EF85F8890995E4
:10126E000895A889B98914960E947B09EE83FF839D
:10127E00AE81BF810895A889B98914960E947B0911
:10128E00EA87FB870895DE011C960E945B090E9487
:10129E007B090895109639F080ED97E00197F1F7EC
:1012AE00A8951197C9F708950024AF0DB01D0895A4
:1012BE00F195E195F0400895EE230E2EEA2F19F0E8
:1012CE00EE0F0A94E9F70895EE230E2EEA2F19F089
:1012DE00E6950A94E9F70895FA9FF02DEB9FF00D2D
:1012EE00EA9FE02DF10D0895ED91FC91119708956F
:1012FE000590F491E02D08957A936A93FA93EA9308
:10130E000895E199FECFFF93FFB7F894AEBBBFBB34
:10131E00E09AEDB3FFBFFF910895E19B02C0A8953F
:10132E00FCCF9FB7F894AEBBBFBBE09A8DB3E81766
:10133E0019F0EDBBE29AE19A9FBF089500240A16B8
:10134E000B0608955A934A933A932A931A930A9343
:10135E0008955D814C813B812A8119810881089510
:00000001FF
