:080000000C944B000C9400006D
:100008000C9400000C9400000C9400000C94000068
:100018000C9400000C9400000C9400000C94000058
:100028000C9400000C9400000C9400000C94000048
:100038000C9400000C9400000C947B000C940000BD
:100048000C9400000C9400000C9400000C94000028
:100058000C9400000C9400000C9400000C94000018
:100068000C9400000C9400000C9400000C94000008
:100078000C9400000C9400000C9400000C940000F8
:100088000C9400000000010005008C000000F894AA
:10009800EE27ECBBF1E0F5BFE5BFE0936C008DE027
:1000A800A2E0BB27ED938A95E9F780E090E1A0E014
:1000B800B1E0ED930197E9F7EEE8F0E085919591CD
:1000C800009761F0A591B59105901590BF01F001D9
:1000D80005900D920197E1F7FB01F0CF8BBFEFEF91
:1000E800EDBFE0E1EEBFC0E0D5E00C949A00EA93E2
:1000F800FA93EFB7EA93E6E0E2BFE1E0E51589F4A9
:10010800F30131963F01E8EEF3E0E615F70509F44F
:100118001D98E0EDF7E0E615F70519F41D9A662439
:100128007724E991EFBFF991E9911895E0E0E1BBF7
:10013800E0E2E2B9E3B9EFEFE2BB13D012D0789472
:10014800839903C017D01D985524859903C012D0F0
:100158001D9A5524829903C00DD0E1E05E2EF0CFA0
:10016800FFCFE0E0E0BFE3E0E3BFE6E0E2BFE0E0CE
:10017800E1BF0895AAEFB0E00C94C200109639F0E0
:1001880080ED97E00197F1F7A8951197C9F70895C1
:00000001FF
