:060000000C9468000C9452
:1000060000000C9400000C9400000C9400000C946A
:1000160000000C9400000C9400000C9400000C945A
:1000260000000C9400000C9400000C9400000C944A
:1000360000000C9400000C9400000C9400000C943A
:1000460000000C9400000C9400000C9400000C942A
:1000560000000C9400000C9400000C9400000C941A
:1000660000000C9400000C9400000C9400000C940A
:1000760000000C9400000C9400000C9400000C94FA
:1000860000000C9400001027E80364000A00010039
:100096000010000110000100446F20616D202575DD
:1000A600004E6869657420646F202575000080C065
:1000B60001002D4E414E00494E460000020010053B
:1000C600B40001001405B6000000F894EE27ECBB5E
:1000D600F1E0F5BFE5BFE0936C008DE0A2E0BB2741
:1000E600ED938A95E9F780E090E1A0E0B1E0ED9329
:1000F6000197E9F7E2ECF0E085919591009761F0C0
:10010600A591B59105901590BF01F00105900D924E
:100116000197E1F7FB01F0CF8BBFEFEFEDBFE0E119
:10012600EEBFC0E0D5E00C94FE00BA93AA932597E3
:10013600E0E0E883E983EA83EB83EC830E9407042B
:10014600BF9AC79A8BE68A95F1F7C798AEE1B0E0F9
:100156000E94DE03C79ABF988BE68A95F1F7B79B94
:1001660002C0E0E044C0B79BFECF8BE68A95F1F76C
:10017600B79902C0E0E03BC0B799FECF00E005307A
:1001860000F510E01830D8F4B79BFECF80E58A95CD
:10019600F1F7B79B12C0E02FF0E0DE011496EA0FEC
:1001A600FB1FBF011080E7E0E11BA1E00E94F00306
:1001B600E129DB01EC93B799FECF1F5FE3CF0F5F19
:1001C600DECFED81AC81EA0FAE81EA0FAF81EA0F97
:1001D6003E2FE885E31711F0E0E009C0EE81AB851C
:1001E600BC85EC93EC81A985BA85EC93E1E00E948D
:1001F6000E042D960895A0E1A0D00E949003E0E899
:10020600E1BBE2BBE5E0F0E0FA93EA93A4E0B0E0FC
:100216008CDFE03001F10E949003E0E0F5E0FA9314
:10022600EA93EEE9F0E0FA93EA93E42D0E9497034D
:10023600E0E0EA93A1E042D0E0E0F5E0FA93EA9349
:10024600E7EAF0E0FA93EA93E52D0E949703ACE221
:10025600B1E00E94DE03D6CFFFCFAA93E881E0711A
:1002660011F0DB9A01C0DB98E881E07211F0DC9AAC
:1002760001C0DC98E881E07411F0DD9A01C0DD98D8
:10028600E881E07811F0DE9A01C0DE988DE08A956B
:10029600F1F7DA9A8DE08A95F1F7DA988DE08A958A
:1002A600F1F778C0AA93A881D8DFE881E295E883C0
:1002B600A881D3DF85E88A95F1F76CC0AA93E88117
:1002C600F0E0E05FFA4FE081A981AE0FEBDF7980C5
:1002D600688022960895A2E00E94A403ACE0E2DFC3
:1002E600A1E00E94A403E0E06E2E7E2E0895AA935C
:1002F600A881AA3011F0791448F0E0E0EA936394FB
:10030600A62DDCDFA881AA3009F444C07394D89ADC
:10031600A881C8DFD8983EC0BA93AA931A93A98138
:10032600BA81ED91A983BA831E2FE03019F0A12F6F
:10033600DEDFF5CF188123960895AA93D39AD49A2F
:10034600D59AD69AD29AD09AD19ADA98D898D99834
:100356009880E881E058E0931205E881E054E09344
:100366001305A4E1B0E00E94DE030E94AA030E94E6
:10037600AA030E94AA03A0E270DF88EC90E001972E
:10038600F1F7A8E28FDFA4E08DDFA5E88BDFA6E01A
:1003960089DFA1DF21960895BA93AA931A930A9347
:1003A600AA81BB8112960E94F803309759F1AA815F
:1003B600BB8114960E94F8038F01309761F00230DA
:1003C600E0E01E0798F0F80131978F01AA81BB8102
:1003D6001496ED93FC93AA81BB811296ED91FD9143
:1003E6003196FE93EE933197AC81A083AA81BB81AF
:1003F6000E94F803FF232AF0ED91FD913196FE93BA
:10040600EE9306C0AA81BB81EFEFFFEFED93FC935D
:100416001981088125960895BA93AA9326970E9472
:10042600050410E0AC85BD85E0E0F0E0ED93FC93BB
:10043600EA89FB893196EA8BFB8B3197E4912E2F63
:10044600E03009F415C1E12FE03039F4253211F41A
:1004560011E002C00E94B2030AC1E130A9F42532BC
:1004660019F40E94B20302C112E040E000E02D320E
:1004760011F401E0FCC02B3211F44BE2F8C020323B
:1004860011F440E2F4C002C0E23039F450E013E067
:10049600203311F40068EBC003C0E33009F0E7C075
:1004A600203310F02A3308F007C0AAE05A9F502DD7
:1004B600E22FE0535E0FDBC0E22FE33649F40E94E1
:1004C600B903E889F989A481AA930E94BF03CEC023
:1004D600E33741F40E94B9030E94C5030E947703E3
:1004E6001E2F0AC0E03761F40E94B9030E94C503BB
:1004F6000E9483031E2F086002600F7730E034C02D
:10050600E43611F0E93611F4046002C0E53731F43F
:10051600ECE8F0E0EE83FF8315E00CC0E83511F45B
:10052600086003C0E83709F0A1C0E6E9F0E0EE8311
:10053600FF8314E002FF14C00E94B9030E94CF0398
:10054600AB85AA233AF4EA85FB850E94EC03EA8789
:10055600FB874DE2403011F01F5F01C00B7F04C0E6
:100566000E94B9030E94CF0300FD11C0151778F44D
:1005760007FF08C002FF04C00B7F242F115001C0E3
:1005860020E301C020E20E94B2035150EFCF312F89
:1005960001FF17C03030A1F003FF06C0EE81FF81D6
:1005A6002591EE83FF8305C0AE81BF812D91AE8379
:1005B600BF830E94B203503009F051503150EACF48
:1005C6004BC020E3EE81FF810E94FC03E887F98798
:1005D600EE81FF813296EE83FF83E885F985AA8551
:1005E600BB85AE17BF0750F02F5FA885B985EA8592
:1005F600FB85EA1BFB0BEA87FB87EFCF2A3328F044
:1006060003FF02C0295F01C0295D04FD1AC0213322
:1006160020F4A885B985119709F409C0531710F07D
:1006260000FF01C013C020E207FF0BC020E30061FA
:1006360002FF07C00B7F4A930E94BF03503009F0A8
:1006460051500E94B203503009F051503150A885E4
:10065600B985129708F0B5CF00FF08C0503031F0C9
:100666005150E0E2EA930E94BF03F8CF10E0E0CEDB
:10067600AC85BD850E94F8030E940C04649608951B
:10068600FF92F82E26970E9407040E94D703309700
:1006960019F4EFEFFFEF23C0DE0116960E94E80380
:1006A6008D010E94D703EE83FF83E0E0E887E987A8
:1006B600DE011A960E94E8030E94F803FA93EA9371
:1006C6001A930A93EFECF1E0FA93EA93DE011A9695
:1006D600A3DE9F01AE81BF81E0E0EC93F9010E94A9
:1006E6000E042A96FF900895BA93AA93A991B991F8
:1006F600EE27FF276D91662311F03196FBCF089503
:10070600BA93AA93AA27BB27E991F99105900020ED
:1007160011F01196FBCFFD0108950E946E01E0E0F5
:10072600EA93A0E00C946101FF27662777270E94D1
:10073600000484E00E9443032896A0E0B5E00C94F0
:100746008F010E945501A3E0B0E00C94DE03A0E304
:100756000E94300188EC90E00197F1F708952A9302
:10076600AD85BE85EF85F88909950895E889F989EB
:100776003497E88BF98B0895AD85BE85EF85F889AA
:1007860009950895A889B98914960E94F803EE83FD
:10079600FF83AE81BF810895A889B98914960E9406
:1007A600F803EA87FB870895DE011C960E94E8039A
:1007B6000E94F8030895109639F080ED97E00197AE
:1007C600F1F7A8951197C9F708950024AF0DB01D4C
:1007D6000895F195E195F0400895EE230E2EEA2F47
:1007E60019F0EE0F0A94E9F70895ED91FC9111972F
:1007F60008950590F491E02D08957A936A93FA93FB
:10080600EA9308955A934A933A932A931A930A932A
:1008160008955D814C813B812A8119810881089563
:00000001FF
