:0A0000000C944F000C9400000C94C7
:10000A0000000C9400000C9400000C9400000C9466
:10001A0000000C9400000C9400000C9400000C9456
:10002A0000000C9400000C9400000C9400000C9446
:10003A0000000C9400000C946D000C9400000C94C9
:10004A0000000C9400000C9400000C9400000C9426
:10005A0000000C9400000C9400000C9400000C9416
:10006A0000000C9400000C9400000C9400000C9406
:10007A0000000C9400000C9400000C9400000C94F6
:10008A0000001027E80364000A00010000100001C4
:10009A0010000100F894EE27ECBBF1E0F5BFE5BFD4
:1000AA00E0936C008DE0A2E0BB27ED938A95E9F717
:1000BA0080E090E1A0E0B1E0ED930197E9F78BBF12
:1000CA00EFEFEDBFE0E1EEBFC0E0D5E00C948F00AA
:1000DA00AA93BA93EA93FA93EFB7EA93E0EBE2BFF3
:1000EA00F20131962F01E0EDF7E0E415F50511F480
:1000FA0044245524E72DD201F0E0AE17BF0714F4CB
:10010A00AF9A01C0AF98E991EFBFF991E991B9911E
:10011A00A9911895E0E8E4BBE0E0E7BBECE0E8BBB6
:10012A00E0E0E0BFE1E0E3BFE0EBE2BFE0E0E1BF37
:10013A00E1E0E7BFE0E0E0937D007894B29902C085
:10014A00E6E97E2EB39902C0EFEA7E2EF7CFFFCF03
:00000001FF
